{
    "_format": "hh-sol-artifact-1",
    "contractName": "WavePortal",
    "sourceName": "contracts/WavePortal.sol",
    "abi": [
        {
            "inputs": [],
            "stateMutability": "nonpayable",
            "type": "constructor"
        },
        {
            "inputs": [],
            "name": "getTotalWaves",
            "outputs": [
                {
                    "internalType": "uint256",
                    "name": "",
                    "type": "uint256"
                }
            ],
            "stateMutability": "view",
            "type": "function"
        },
        {
            "inputs": [],
            "name": "getWavers",
            "outputs": [
                {
                    "internalType": "address[]",
                    "name": "",
                    "type": "address[]"
                }
            ],
            "stateMutability": "view",
            "type": "function"
        },
        {
            "inputs": [],
            "name": "wave",
            "outputs": [],
            "stateMutability": "nonpayable",
            "type": "function"
        }
    ],
    "bytecode": "0x608060405234801561001057600080fd5b506100596040518060400160405280601981526020017f6865792c2049276d206120736d61727420636f6e74726163740000000000000081525061005e60201b6102221760201c565b6101d8565b6100fa8160405160240161007291906101b6565b6040516020818303038152906040527f41304fac000000000000000000000000000000000000000000000000000000007bffffffffffffffffffffffffffffffffffffffffffffffffffffffff19166020820180517bffffffffffffffffffffffffffffffffffffffffffffffffffffffff83818316178352505050506100fd60201b60201c565b50565b60008151905060006a636f6e736f6c652e6c6f679050602083016000808483855afa5050505050565b600081519050919050565b600082825260208201905092915050565b60005b83811015610160578082015181840152602081019050610145565b60008484015250505050565b6000601f19601f8301169050919050565b600061018882610126565b6101928185610131565b93506101a2818560208601610142565b6101ab8161016c565b840191505092915050565b600060208201905081810360008301526101d0818461017d565b905092915050565b61071c806101e76000396000f3fe608060405234801561001057600080fd5b50600436106100415760003560e01c8063635f29f8146100465780636fe15b44146100645780639a2cdc081461006e575b600080fd5b61004e61008c565b60405161005b919061050c565b60405180910390f35b61006c61011a565b005b6100766101d7565b6040516100839190610547565b60405180910390f35b6060600180548060200260200160405190810160405280929190818152602001828054801561011057602002820191906000526020600020905b8160009054906101000a900473ffffffffffffffffffffffffffffffffffffffff1673ffffffffffffffffffffffffffffffffffffffff16815260200190600101908083116100c6575b5050505050905090565b600160008082825461012c9190610591565b925050819055506101726040518060400160405280600e81526020017f2573206861732077616976656421000000000000000000000000000000000000815250336102bb565b6001339080600181540180825580915050600190039060005260206000200160009091909190916101000a81548173ffffffffffffffffffffffffffffffffffffffff021916908373ffffffffffffffffffffffffffffffffffffffff160217905550565b600061021a6040518060400160405280601781526020017f5765206861766520256420746f74616c20776176657321000000000000000000815250600054610357565b600054905090565b6102b8816040516024016102369190610655565b6040516020818303038152906040527f41304fac000000000000000000000000000000000000000000000000000000007bffffffffffffffffffffffffffffffffffffffffffffffffffffffff19166020820180517bffffffffffffffffffffffffffffffffffffffffffffffffffffffff83818316178352505050506103f3565b50565b61035382826040516024016102d1929190610686565b6040516020818303038152906040527f319af333000000000000000000000000000000000000000000000000000000007bffffffffffffffffffffffffffffffffffffffffffffffffffffffff19166020820180517bffffffffffffffffffffffffffffffffffffffffffffffffffffffff83818316178352505050506103f3565b5050565b6103ef828260405160240161036d9291906106b6565b6040516020818303038152906040527fb60e72cc000000000000000000000000000000000000000000000000000000007bffffffffffffffffffffffffffffffffffffffffffffffffffffffff19166020820180517bffffffffffffffffffffffffffffffffffffffffffffffffffffffff83818316178352505050506103f3565b5050565b60008151905060006a636f6e736f6c652e6c6f679050602083016000808483855afa5050505050565b600081519050919050565b600082825260208201905092915050565b6000819050602082019050919050565b600073ffffffffffffffffffffffffffffffffffffffff82169050919050565b600061047382610448565b9050919050565b61048381610468565b82525050565b6000610495838361047a565b60208301905092915050565b6000602082019050919050565b60006104b98261041c565b6104c38185610427565b93506104ce83610438565b8060005b838110156104ff5781516104e68882610489565b97506104f1836104a1565b9250506001810190506104d2565b5085935050505092915050565b6000602082019050818103600083015261052681846104ae565b905092915050565b6000819050919050565b6105418161052e565b82525050565b600060208201905061055c6000830184610538565b92915050565b7f4e487b7100000000000000000000000000000000000000000000000000000000600052601160045260246000fd5b600061059c8261052e565b91506105a78361052e565b92508282019050808211156105bf576105be610562565b5b92915050565b600081519050919050565b600082825260208201905092915050565b60005b838110156105ff5780820151818401526020810190506105e4565b60008484015250505050565b6000601f19601f8301169050919050565b6000610627826105c5565b61063181856105d0565b93506106418185602086016105e1565b61064a8161060b565b840191505092915050565b6000602082019050818103600083015261066f818461061c565b905092915050565b61068081610468565b82525050565b600060408201905081810360008301526106a0818561061c565b90506106af6020830184610677565b9392505050565b600060408201905081810360008301526106d0818561061c565b90506106df6020830184610538565b939250505056fea2646970667358221220713f78d41e2afa2e142d5d5c2905d6e2c5cdb6d1a0c538f8a870b4996e9c81f964736f6c63430008110033",
    "linkReferences": {},
    "deployedLinkReferences": {}
}