{
  "_format": "hh-sol-artifact-1",
  "contractName": "WavePortal",
  "sourceName": "contracts/WavePortal.sol",
  "abi": [
    {
      "inputs": [],
      "stateMutability": "nonpayable",
      "type": "constructor"
    },
    {
      "anonymous": false,
      "inputs": [
        {
          "indexed": true,
          "internalType": "address",
          "name": "from",
          "type": "address"
        },
        {
          "indexed": false,
          "internalType": "uint256",
          "name": "timestamp",
          "type": "uint256"
        },
        {
          "indexed": false,
          "internalType": "string",
          "name": "message",
          "type": "string"
        }
      ],
      "name": "NewWave",
      "type": "event"
    },
    {
      "inputs": [],
      "name": "getAllWaves",
      "outputs": [
        {
          "components": [
            {
              "internalType": "address",
              "name": "waver",
              "type": "address"
            },
            {
              "internalType": "string",
              "name": "message",
              "type": "string"
            },
            {
              "internalType": "uint256",
              "name": "timestamp",
              "type": "uint256"
            }
          ],
          "internalType": "struct WavePortal.Wave[]",
          "name": "",
          "type": "tuple[]"
        }
      ],
      "stateMutability": "view",
      "type": "function"
    },
    {
      "inputs": [],
      "name": "getTotalWaves",
      "outputs": [
        {
          "internalType": "uint256",
          "name": "",
          "type": "uint256"
        }
      ],
      "stateMutability": "view",
      "type": "function"
    },
    {
      "inputs": [],
      "name": "getWavers",
      "outputs": [
        {
          "internalType": "address[]",
          "name": "",
          "type": "address[]"
        }
      ],
      "stateMutability": "view",
      "type": "function"
    },
    {
      "inputs": [
        {
          "internalType": "string",
          "name": "_message",
          "type": "string"
        }
      ],
      "name": "wave",
      "outputs": [],
      "stateMutability": "nonpayable",
      "type": "function"
    }
  ],
  "bytecode": "0x60806040523480156200001157600080fd5b506200005d6040518060400160405280601981526020017f6865792c2049276d206120736d61727420636f6e7472616374000000000000008152506200006360201b620004c51760201c565b620001ed565b62000103816040516024016200007a9190620001c9565b6040516020818303038152906040527f41304fac000000000000000000000000000000000000000000000000000000007bffffffffffffffffffffffffffffffffffffffffffffffffffffffff19166020820180517bffffffffffffffffffffffffffffffffffffffffffffffffffffffff83818316178352505050506200010660201b60201c565b50565b60008151905060006a636f6e736f6c652e6c6f679050602083016000808483855afa5050505050565b600081519050919050565b600082825260208201905092915050565b60005b838110156200016b5780820151818401526020810190506200014e565b60008484015250505050565b6000601f19601f8301169050919050565b600062000195826200012f565b620001a181856200013a565b9350620001b38185602086016200014b565b620001be8162000177565b840191505092915050565b60006020820190508181036000830152620001e5818462000188565b905092915050565b61100480620001fd6000396000f3fe608060405234801561001057600080fd5b506004361061004c5760003560e01c8063449d46c014610051578063635f29f81461006d5780639a2cdc081461008b578063bd43a908146100a9575b600080fd5b61006b6004803603810190610066919061081c565b6100c7565b005b61007561029b565b6040516100829190610955565b60405180910390f35b610093610329565b6040516100a09190610990565b60405180910390f35b6100b1610374565b6040516100be9190610b4b565b60405180910390f35b60016000808282546100d99190610b9c565b925050819055506101206040518060400160405280601e81526020017f257320686173207761697665642077697468206d657373616765202573210000815250338361055e565b6001339080600181540180825580915050600190039060005260206000200160009091909190916101000a81548173ffffffffffffffffffffffffffffffffffffffff021916908373ffffffffffffffffffffffffffffffffffffffff160217905550600260405180606001604052803373ffffffffffffffffffffffffffffffffffffffff16815260200183815260200142815250908060018154018082558091505060019003906000526020600020906003020160009091909190915060008201518160000160006101000a81548173ffffffffffffffffffffffffffffffffffffffff021916908373ffffffffffffffffffffffffffffffffffffffff160217905550602082015181600101908161023b9190610ddc565b506040820151816002015550503373ffffffffffffffffffffffffffffffffffffffff167f5f7e16dc676677766a70e9c5628aa6c54ddb8b6e5188e2ae1e1f17f1ffbea7164283604051610290929190610ef8565b60405180910390a250565b6060600180548060200260200160405190810160405280929190818152602001828054801561031f57602002820191906000526020600020905b8160009054906101000a900473ffffffffffffffffffffffffffffffffffffffff1673ffffffffffffffffffffffffffffffffffffffff16815260200190600101908083116102d5575b5050505050905090565b600061036c6040518060400160405280601781526020017f5765206861766520256420746f74616c207761766573210000000000000000008152506000546105fd565b600054905090565b60606002805480602002602001604051908101604052809291908181526020016000905b828210156104bc57838290600052602060002090600302016040518060600160405290816000820160009054906101000a900473ffffffffffffffffffffffffffffffffffffffff1673ffffffffffffffffffffffffffffffffffffffff1673ffffffffffffffffffffffffffffffffffffffff16815260200160018201805461042190610bff565b80601f016020809104026020016040519081016040528092919081815260200182805461044d90610bff565b801561049a5780601f1061046f5761010080835404028352916020019161049a565b820191906000526020600020905b81548152906001019060200180831161047d57829003601f168201915b5050505050815260200160028201548152505081526020019060010190610398565b50505050905090565b61055b816040516024016104d99190610f28565b6040516020818303038152906040527f41304fac000000000000000000000000000000000000000000000000000000007bffffffffffffffffffffffffffffffffffffffffffffffffffffffff19166020820180517bffffffffffffffffffffffffffffffffffffffffffffffffffffffff8381831617835250505050610699565b50565b6105f883838360405160240161057693929190610f59565b6040516020818303038152906040527fe0e9ad4f000000000000000000000000000000000000000000000000000000007bffffffffffffffffffffffffffffffffffffffffffffffffffffffff19166020820180517bffffffffffffffffffffffffffffffffffffffffffffffffffffffff8381831617835250505050610699565b505050565b6106958282604051602401610613929190610f9e565b6040516020818303038152906040527fb60e72cc000000000000000000000000000000000000000000000000000000007bffffffffffffffffffffffffffffffffffffffffffffffffffffffff19166020820180517bffffffffffffffffffffffffffffffffffffffffffffffffffffffff8381831617835250505050610699565b5050565b60008151905060006a636f6e736f6c652e6c6f679050602083016000808483855afa5050505050565b6000604051905090565b600080fd5b600080fd5b600080fd5b600080fd5b6000601f19601f8301169050919050565b7f4e487b7100000000000000000000000000000000000000000000000000000000600052604160045260246000fd5b610729826106e0565b810181811067ffffffffffffffff82111715610748576107476106f1565b5b80604052505050565b600061075b6106c2565b90506107678282610720565b919050565b600067ffffffffffffffff821115610787576107866106f1565b5b610790826106e0565b9050602081019050919050565b82818337600083830152505050565b60006107bf6107ba8461076c565b610751565b9050828152602081018484840111156107db576107da6106db565b5b6107e684828561079d565b509392505050565b600082601f830112610803576108026106d6565b5b81356108138482602086016107ac565b91505092915050565b600060208284031215610832576108316106cc565b5b600082013567ffffffffffffffff8111156108505761084f6106d1565b5b61085c848285016107ee565b91505092915050565b600081519050919050565b600082825260208201905092915050565b6000819050602082019050919050565b600073ffffffffffffffffffffffffffffffffffffffff82169050919050565b60006108bc82610891565b9050919050565b6108cc816108b1565b82525050565b60006108de83836108c3565b60208301905092915050565b6000602082019050919050565b600061090282610865565b61090c8185610870565b935061091783610881565b8060005b8381101561094857815161092f88826108d2565b975061093a836108ea565b92505060018101905061091b565b5085935050505092915050565b6000602082019050818103600083015261096f81846108f7565b905092915050565b6000819050919050565b61098a81610977565b82525050565b60006020820190506109a56000830184610981565b92915050565b600081519050919050565b600082825260208201905092915050565b6000819050602082019050919050565b600081519050919050565b600082825260208201905092915050565b60005b83811015610a115780820151818401526020810190506109f6565b60008484015250505050565b6000610a28826109d7565b610a3281856109e2565b9350610a428185602086016109f3565b610a4b816106e0565b840191505092915050565b610a5f81610977565b82525050565b6000606083016000830151610a7d60008601826108c3565b5060208301518482036020860152610a958282610a1d565b9150506040830151610aaa6040860182610a56565b508091505092915050565b6000610ac18383610a65565b905092915050565b6000602082019050919050565b6000610ae1826109ab565b610aeb81856109b6565b935083602082028501610afd856109c7565b8060005b85811015610b395784840389528151610b1a8582610ab5565b9450610b2583610ac9565b925060208a01995050600181019050610b01565b50829750879550505050505092915050565b60006020820190508181036000830152610b658184610ad6565b905092915050565b7f4e487b7100000000000000000000000000000000000000000000000000000000600052601160045260246000fd5b6000610ba782610977565b9150610bb283610977565b9250828201905080821115610bca57610bc9610b6d565b5b92915050565b7f4e487b7100000000000000000000000000000000000000000000000000000000600052602260045260246000fd5b60006002820490506001821680610c1757607f821691505b602082108103610c2a57610c29610bd0565b5b50919050565b60008190508160005260206000209050919050565b60006020601f8301049050919050565b600082821b905092915050565b600060088302610c927fffffffffffffffffffffffffffffffffffffffffffffffffffffffffffffffff82610c55565b610c9c8683610c55565b95508019841693508086168417925050509392505050565b6000819050919050565b6000610cd9610cd4610ccf84610977565b610cb4565b610977565b9050919050565b6000819050919050565b610cf383610cbe565b610d07610cff82610ce0565b848454610c62565b825550505050565b600090565b610d1c610d0f565b610d27818484610cea565b505050565b5b81811015610d4b57610d40600082610d14565b600181019050610d2d565b5050565b601f821115610d9057610d6181610c30565b610d6a84610c45565b81016020851015610d79578190505b610d8d610d8585610c45565b830182610d2c565b50505b505050565b600082821c905092915050565b6000610db360001984600802610d95565b1980831691505092915050565b6000610dcc8383610da2565b9150826002028217905092915050565b610de5826109d7565b67ffffffffffffffff811115610dfe57610dfd6106f1565b5b610e088254610bff565b610e13828285610d4f565b600060209050601f831160018114610e465760008415610e34578287015190505b610e3e8582610dc0565b865550610ea6565b601f198416610e5486610c30565b60005b82811015610e7c57848901518255600182019150602085019450602081019050610e57565b86831015610e995784890151610e95601f891682610da2565b8355505b6001600288020188555050505b505050505050565b600082825260208201905092915050565b6000610eca826109d7565b610ed48185610eae565b9350610ee48185602086016109f3565b610eed816106e0565b840191505092915050565b6000604082019050610f0d6000830185610981565b8181036020830152610f1f8184610ebf565b90509392505050565b60006020820190508181036000830152610f428184610ebf565b905092915050565b610f53816108b1565b82525050565b60006060820190508181036000830152610f738186610ebf565b9050610f826020830185610f4a565b8181036040830152610f948184610ebf565b9050949350505050565b60006040820190508181036000830152610fb88185610ebf565b9050610fc76020830184610981565b939250505056fea2646970667358221220a41eb08c7e09a3a9812589dbecde7ecdb8d9195bce4a5e6dd5ee16e8c6a5464764736f6c63430008110033",
  "linkReferences": {},
  "deployedLinkReferences": {}
}